{
  "contractName": "MarketPlace",
  "abi": [
    {
      "constant": true,
      "inputs": [],
      "name": "Emergency",
      "outputs": [
        {
          "name": "",
          "type": "bool"
        }
      ],
      "payable": false,
      "stateMutability": "view",
      "type": "function",
      "signature": "0x6b1781b6"
    },
    {
      "constant": true,
      "inputs": [
        {
          "name": "",
          "type": "uint256"
        }
      ],
      "name": "ProductList",
      "outputs": [
        {
          "name": "pdt_id",
          "type": "uint256"
        },
        {
          "name": "pdt_name",
          "type": "string"
        },
        {
          "name": "pdt_price",
          "type": "uint256"
        },
        {
          "name": "pdt_qty",
          "type": "uint256"
        }
      ],
      "payable": false,
      "stateMutability": "view",
      "type": "function",
      "signature": "0x805dd9e9"
    },
    {
      "constant": true,
      "inputs": [
        {
          "name": "",
          "type": "uint256"
        }
      ],
      "name": "AdministratorList",
      "outputs": [
        {
          "name": "",
          "type": "address"
        }
      ],
      "payable": false,
      "stateMutability": "view",
      "type": "function",
      "signature": "0x93aebea5"
    },
    {
      "constant": true,
      "inputs": [],
      "name": "SuperAdministrator",
      "outputs": [
        {
          "name": "",
          "type": "address"
        }
      ],
      "payable": false,
      "stateMutability": "view",
      "type": "function",
      "signature": "0xc8b25090"
    },
    {
      "constant": true,
      "inputs": [
        {
          "name": "",
          "type": "uint256"
        }
      ],
      "name": "StoreFrontList",
      "outputs": [
        {
          "name": "sf_id",
          "type": "uint256"
        },
        {
          "name": "sf_name",
          "type": "string"
        }
      ],
      "payable": false,
      "stateMutability": "view",
      "type": "function",
      "signature": "0xd0116978"
    },
    {
      "constant": true,
      "inputs": [
        {
          "name": "",
          "type": "uint256"
        }
      ],
      "name": "StoreOwnerList",
      "outputs": [
        {
          "name": "so_id",
          "type": "uint256"
        },
        {
          "name": "so_name",
          "type": "string"
        },
        {
          "name": "so_address",
          "type": "address"
        },
        {
          "name": "so_balance",
          "type": "uint256"
        }
      ],
      "payable": false,
      "stateMutability": "view",
      "type": "function",
      "signature": "0xe864edb8"
    },
    {
      "inputs": [],
      "payable": false,
      "stateMutability": "nonpayable",
      "type": "constructor",
      "signature": "constructor"
    },
    {
      "anonymous": false,
      "inputs": [
        {
          "indexed": true,
          "name": "_actor_id",
          "type": "address"
        },
        {
          "indexed": false,
          "name": "_actor_type",
          "type": "uint8"
        },
        {
          "indexed": false,
          "name": "_status",
          "type": "string"
        }
      ],
      "name": "ActorRegistryUpdate",
      "type": "event",
      "signature": "0x8c67e72dddf24f30cfecaf737da2ee3ae2068b1b6ce8ed2fa14550706992c6dd"
    },
    {
      "anonymous": false,
      "inputs": [
        {
          "indexed": true,
          "name": "_actor_id",
          "type": "address"
        },
        {
          "indexed": false,
          "name": "_actor_type",
          "type": "uint8"
        },
        {
          "indexed": false,
          "name": "_object_id",
          "type": "uint256"
        },
        {
          "indexed": false,
          "name": "_object_type",
          "type": "uint8"
        },
        {
          "indexed": false,
          "name": "_status",
          "type": "string"
        }
      ],
      "name": "ObjectRegistryUpdate",
      "type": "event",
      "signature": "0x3994101b5ffe18d10396a813d8bb4871342073ec95c9f7fc651be42995d19fe5"
    },
    {
      "anonymous": false,
      "inputs": [
        {
          "indexed": true,
          "name": "_actor_id",
          "type": "address"
        },
        {
          "indexed": false,
          "name": "_actor_type",
          "type": "uint8"
        },
        {
          "indexed": false,
          "name": "_transaction_type",
          "type": "string"
        },
        {
          "indexed": false,
          "name": "_status",
          "type": "string"
        }
      ],
      "name": "TransactionRegistryUpdate",
      "type": "event",
      "signature": "0xbc61b5c52c51215edb4eab4fe3c88d09f45c01c91273cd0130d1c023c561477c"
    },
    {
      "constant": false,
      "inputs": [],
      "name": "DeclareEmergency",
      "outputs": [
        {
          "name": "",
          "type": "bool"
        }
      ],
      "payable": false,
      "stateMutability": "nonpayable",
      "type": "function",
      "signature": "0xe5d8c87c"
    },
    {
      "constant": false,
      "inputs": [],
      "name": "LiftEmergency",
      "outputs": [
        {
          "name": "",
          "type": "bool"
        }
      ],
      "payable": false,
      "stateMutability": "nonpayable",
      "type": "function",
      "signature": "0xb20f2e7c"
    },
    {
      "constant": false,
      "inputs": [
        {
          "name": "_Administrator",
          "type": "address"
        }
      ],
      "name": "AddAdministrator",
      "outputs": [
        {
          "name": "",
          "type": "bool"
        }
      ],
      "payable": false,
      "stateMutability": "nonpayable",
      "type": "function",
      "signature": "0x6e5eedde"
    },
    {
      "constant": false,
      "inputs": [
        {
          "name": "_StoreOwner",
          "type": "address"
        },
        {
          "name": "_StoreOwnerName",
          "type": "string"
        }
      ],
      "name": "AddStoreOwner",
      "outputs": [
        {
          "name": "",
          "type": "bool"
        }
      ],
      "payable": false,
      "stateMutability": "nonpayable",
      "type": "function",
      "signature": "0xb1dbf6af"
    },
    {
      "constant": false,
      "inputs": [
        {
          "name": "_StoreFrontName",
          "type": "string"
        }
      ],
      "name": "AddStoreFront",
      "outputs": [
        {
          "name": "",
          "type": "bool"
        }
      ],
      "payable": false,
      "stateMutability": "nonpayable",
      "type": "function",
      "signature": "0x0eecc435"
    },
    {
      "constant": false,
      "inputs": [
        {
          "name": "_StoreFrontName",
          "type": "string"
        },
        {
          "name": "_ProductName",
          "type": "string"
        },
        {
          "name": "_ProductPrice",
          "type": "uint256"
        },
        {
          "name": "_ProductQty",
          "type": "uint256"
        }
      ],
      "name": "AddProduct",
      "outputs": [
        {
          "name": "",
          "type": "bool"
        }
      ],
      "payable": false,
      "stateMutability": "nonpayable",
      "type": "function",
      "signature": "0x31fa2deb"
    },
    {
      "constant": false,
      "inputs": [
        {
          "name": "_WithdrawAmount",
          "type": "uint256"
        }
      ],
      "name": "WithdrawBalance",
      "outputs": [
        {
          "name": "",
          "type": "bool"
        }
      ],
      "payable": false,
      "stateMutability": "nonpayable",
      "type": "function",
      "signature": "0x5f5cb80d"
    },
    {
      "constant": false,
      "inputs": [
        {
          "name": "_ProductName",
          "type": "string"
        },
        {
          "name": "_OrderQty",
          "type": "uint256"
        }
      ],
      "name": "BuyProduct",
      "outputs": [
        {
          "name": "",
          "type": "bool"
        }
      ],
      "payable": true,
      "stateMutability": "payable",
      "type": "function",
      "signature": "0xf501199e"
    },
    {
      "constant": true,
      "inputs": [],
      "name": "getAdministrators",
      "outputs": [
        {
          "name": "",
          "type": "address[]"
        }
      ],
      "payable": false,
      "stateMutability": "view",
      "type": "function",
      "signature": "0x543b3693"
    },
    {
      "constant": true,
      "inputs": [],
      "name": "getStoreOwners",
      "outputs": [
        {
          "components": [
            {
              "name": "so_id",
              "type": "uint256"
            },
            {
              "name": "so_name",
              "type": "string"
            },
            {
              "name": "so_address",
              "type": "address"
            },
            {
              "name": "so_balance",
              "type": "uint256"
            },
            {
              "name": "so_sf_ids",
              "type": "uint256[]"
            }
          ],
          "name": "",
          "type": "tuple[]"
        }
      ],
      "payable": false,
      "stateMutability": "view",
      "type": "function",
      "signature": "0x91f4245a"
    },
    {
      "constant": true,
      "inputs": [],
      "name": "getStoreFronts",
      "outputs": [
        {
          "components": [
            {
              "name": "sf_id",
              "type": "uint256"
            },
            {
              "name": "sf_name",
              "type": "string"
            },
            {
              "name": "sf_pdt_ids",
              "type": "uint256[]"
            }
          ],
          "name": "",
          "type": "tuple[]"
        }
      ],
      "payable": false,
      "stateMutability": "view",
      "type": "function",
      "signature": "0x5127db91"
    },
    {
      "constant": true,
      "inputs": [],
      "name": "getProducts",
      "outputs": [
        {
          "components": [
            {
              "name": "pdt_id",
              "type": "uint256"
            },
            {
              "name": "pdt_name",
              "type": "string"
            },
            {
              "name": "pdt_price",
              "type": "uint256"
            },
            {
              "name": "pdt_qty",
              "type": "uint256"
            }
          ],
          "name": "",
          "type": "tuple[]"
        }
      ],
      "payable": false,
      "stateMutability": "view",
      "type": "function",
      "signature": "0xc29b2f20"
    },
    {
      "constant": true,
      "inputs": [
        {
          "name": "_ActorAddress",
          "type": "address"
        }
      ],
      "name": "getActorData",
      "outputs": [
        {
          "name": "",
          "type": "uint8"
        },
        {
          "name": "",
          "type": "uint256"
        }
      ],
      "payable": false,
      "stateMutability": "view",
      "type": "function",
      "signature": "0x171cfb90"
    },
    {
      "constant": true,
      "inputs": [
        {
          "name": "_ObjectName",
          "type": "string"
        }
      ],
      "name": "getObjectData",
      "outputs": [
        {
          "name": "",
          "type": "uint8"
        },
        {
          "name": "",
          "type": "uint256"
        }
      ],
      "payable": false,
      "stateMutability": "view",
      "type": "function",
      "signature": "0x36af2449"
    },
    {
      "constant": true,
      "inputs": [
        {
          "name": "_ObjectOwnerName",
          "type": "string"
        }
      ],
      "name": "getObjectOwnerData",
      "outputs": [
        {
          "name": "",
          "type": "uint8"
        },
        {
          "name": "",
          "type": "uint256"
        }
      ],
      "payable": false,
      "stateMutability": "view",
      "type": "function",
      "signature": "0x668877e2"
    }
  ],
  "bytecode": "0x608060405234801561001057600080fd5b5033600060016101000a81548173ffffffffffffffffffffffffffffffffffffffff021916908373ffffffffffffffffffffffffffffffffffffffff1602179055506001600560008060019054906101000a900473ffffffffffffffffffffffffffffffffffffffff1673ffffffffffffffffffffffffffffffffffffffff1673ffffffffffffffffffffffffffffffffffffffff16815260200190815260200160002060006101000a81548160ff021916908360028111156100cf57fe5b02179055506001600060019054906101000a900473ffffffffffffffffffffffffffffffffffffffff1690806001815401808255809150509060018203906000526020600020016000909192909190916101000a81548173ffffffffffffffffffffffffffffffffffffffff021916908373ffffffffffffffffffffffffffffffffffffffff1602179055505061527a806200016c6000396000f3fe60806040526004361061011d576000357c0100000000000000000000000000000000000000000000000000000000900463ffffffff1680630eecc43514610122578063171cfb901461015f57806331fa2deb1461019d57806336af2449146101da5780635127db9114610218578063543b3693146102435780635f5cb80d1461026e578063668877e2146102ab5780636b1781b6146102e95780636e5eedde14610314578063805dd9e91461035157806391f4245a1461039157806393aebea5146103bc578063b1dbf6af146103f9578063b20f2e7c14610436578063c29b2f2014610461578063c8b250901461048c578063d0116978146104b7578063e5d8c87c146104f5578063e864edb814610520578063f501199e14610560575b600080fd5b34801561012e57600080fd5b5061014960048036036101449190810190614067565b610590565b6040516101569190614ac2565b60405180910390f35b34801561016b57600080fd5b5061018660048036036101819190810190613fea565b611044565b604051610194929190614cf5565b60405180910390f35b3480156101a957600080fd5b506101c460048036036101bf91908101906140a8565b6110dd565b6040516101d19190614ac2565b60405180910390f35b3480156101e657600080fd5b5061020160048036036101fc9190810190614067565b611d49565b60405161020f929190614f03565b60405180910390f35b34801561022457600080fd5b5061022d611e3a565b60405161023a9190614a7e565b60405180910390f35b34801561024f57600080fd5b50610258611f9e565b6040516102659190614a3a565b60405180910390f35b34801561027a57600080fd5b506102956004803603610290919081019061418f565b61202c565b6040516102a29190614ac2565b60405180910390f35b3480156102b757600080fd5b506102d260048036036102cd9190810190614067565b61238a565b6040516102e0929190614eda565b60405180910390f35b3480156102f557600080fd5b506102fe61247b565b60405161030b9190614ac2565b60405180910390f35b34801561032057600080fd5b5061033b60048036036103369190810190613fea565b61248d565b6040516103489190614ac2565b60405180910390f35b34801561035d57600080fd5b506103786004803603610373919081019061418f565b6128d6565b6040516103889493929190614fa8565b60405180910390f35b34801561039d57600080fd5b506103a66129ad565b6040516103b39190614aa0565b60405180910390f35b3480156103c857600080fd5b506103e360048036036103de919081019061418f565b612b71565b6040516103f09190614a1f565b60405180910390f35b34801561040557600080fd5b50610420600480360361041b9190810190614013565b612baf565b60405161042d9190614ac2565b60405180910390f35b34801561044257600080fd5b5061044b61310b565b6040516104589190614ac2565b60405180910390f35b34801561046d57600080fd5b506104766131b2565b6040516104839190614a5c565b60405180910390f35b34801561049857600080fd5b506104a16132d2565b6040516104ae9190614a1f565b60405180910390f35b3480156104c357600080fd5b506104de60048036036104d9919081019061418f565b6132f8565b6040516104ec929190614f2c565b60405180910390f35b34801561050157600080fd5b5061050a6133c3565b6040516105179190614ac2565b60405180910390f35b34801561052c57600080fd5b506105476004803603610542919081019061418f565b61344e565b6040516105579493929190614f5c565b60405180910390f35b61057a6004803603610575919081019061413b565b613545565b6040516105879190614ac2565b60405180910390f35b60008060009054906101000a900460ff161515156105ad57600080fd5b6002808111156105b957fe5b600560003373ffffffffffffffffffffffffffffffffffffffff1673ffffffffffffffffffffffffffffffffffffffff16815260200190815260200160002060009054906101000a900460ff16600281111561061157fe5b14151561061d57600080fd5b6000600281111561062a57fe5b6007836040518082805190602001908083835b602083101515610662578051825260208201915060208101905060208303925061063d565b6001836020036101000a038019825116818451168082178552505050505050905001915050908152602001604051809103902060009054906101000a900460ff1660028111156106ae57fe5b1415610c985760016007836040518082805190602001908083835b6020831015156106ee57805182526020820191506020810190506020830392506106c9565b6001836020036101000a038019825116818451168082178552505050505050905001915050908152602001604051809103902060006101000a81548160ff0219169083600281111561073c57fe5b02179055506003805490506008836040518082805190602001908083835b60208310151561077f578051825260208201915060208101905060208303925061075a565b6001836020036101000a0380198251168184511680821785525050505050509050019150509081526020016040518091039020819055506107be613de9565b6008836040518082805190602001908083835b6020831015156107f657805182526020820191506020810190506020830392506107d1565b6001836020036101000a03801982511681845116808217855250505050505090500191505090815260200160405180910390205481600001818152505082816020018190525060038190806001815401808255809150509060018203906000526020600020906003020160009091929091909150600082015181600001556020820151816001019080519060200190610890929190613e0b565b5060408201518160020190805190602001906108ad929190613e8b565b5050505060016009846040518082805190602001908083835b6020831015156108eb57805182526020820191506020810190506020830392506108c6565b6001836020036101000a038019825116818451168082178552505050505050905001915050908152602001604051809103902060006101000a81548160ff0219169083600281111561093957fe5b0217905550600660003373ffffffffffffffffffffffffffffffffffffffff1673ffffffffffffffffffffffffffffffffffffffff16815260200190815260200160002054600a846040518082805190602001908083835b6020831015156109b65780518252602082019150602081019050602083039250610991565b6001836020036101000a0380198251168184511680821785525050505050509050019150509081526020016040518091039020819055506002600a846040518082805190602001908083835b602083101515610a275780518252602082019150602081019050602083039250610a02565b6001836020036101000a038019825116818451168082178552505050505050905001915050908152602001604051809103902054815481101515610a6757fe5b90600052602060002090600502016004016008846040518082805190602001908083835b602083101515610ab05780518252602082019150602081019050602083039250610a8b565b6001836020036101000a03801982511681845116808217855250505050505090500191505090815260200160405180910390205490806001815401808255809150509060018203906000526020600020016000909192909190915055503373ffffffffffffffffffffffffffffffffffffffff167f3994101b5ffe18d10396a813d8bb4871342073ec95c9f7fc651be42995d19fe5600560003373ffffffffffffffffffffffffffffffffffffffff1673ffffffffffffffffffffffffffffffffffffffff16815260200190815260200160002060009054906101000a900460ff166008866040518082805190602001908083835b602083101515610bca5780518252602082019150602081019050602083039250610ba5565b6001836020036101000a0380198251168184511680821785525050505050509050019150509081526020016040518091039020546007876040518082805190602001908083835b602083101515610c365780518252602082019150602081019050602083039250610c11565b6001836020036101000a038019825116818451168082178552505050505050905001915050908152602001604051809103902060009054906101000a900460ff16604051610c8693929190614e46565b60405180910390a2600191505061103f565b60016002811115610ca557fe5b6007836040518082805190602001908083835b602083101515610cdd5780518252602082019150602081019050602083039250610cb8565b6001836020036101000a038019825116818451168082178552505050505050905001915050908152602001604051809103902060009054906101000a900460ff166002811115610d2957fe5b1415610eb9573373ffffffffffffffffffffffffffffffffffffffff167f3994101b5ffe18d10396a813d8bb4871342073ec95c9f7fc651be42995d19fe5600560003373ffffffffffffffffffffffffffffffffffffffff1673ffffffffffffffffffffffffffffffffffffffff16815260200190815260200160002060009054906101000a900460ff166008856040518082805190602001908083835b602083101515610dec5780518252602082019150602081019050602083039250610dc7565b6001836020036101000a0380198251168184511680821785525050505050509050019150509081526020016040518091039020546007866040518082805190602001908083835b602083101515610e585780518252602082019150602081019050602083039250610e33565b6001836020036101000a038019825116818451168082178552505050505050905001915050908152602001604051809103902060009054906101000a900460ff16604051610ea893929190614db2565b60405180910390a26001905061103f565b3373ffffffffffffffffffffffffffffffffffffffff167f3994101b5ffe18d10396a813d8bb4871342073ec95c9f7fc651be42995d19fe5600560003373ffffffffffffffffffffffffffffffffffffffff1673ffffffffffffffffffffffffffffffffffffffff16815260200190815260200160002060009054906101000a900460ff166008856040518082805190602001908083835b602083101515610f765780518252602082019150602081019050602083039250610f51565b6001836020036101000a0380198251168184511680821785525050505050509050019150509081526020016040518091039020546007866040518082805190602001908083835b602083101515610fe25780518252602082019150602081019050602083039250610fbd565b6001836020036101000a038019825116818451168082178552505050505050905001915050908152602001604051809103902060009054906101000a900460ff1660405161103293929190614d1e565b60405180910390a2600090505b919050565b600080600560008473ffffffffffffffffffffffffffffffffffffffff1673ffffffffffffffffffffffffffffffffffffffff16815260200190815260200160002060009054906101000a900460ff16600660008573ffffffffffffffffffffffffffffffffffffffff1673ffffffffffffffffffffffffffffffffffffffff1681526020019081526020016000205491509150915091565b60008060009054906101000a900460ff161515156110fa57600080fd5b60028081111561110657fe5b600560003373ffffffffffffffffffffffffffffffffffffffff1673ffffffffffffffffffffffffffffffffffffffff16815260200190815260200160002060009054906101000a900460ff16600281111561115e57fe5b14151561116a57600080fd5b6001600281111561117757fe5b6007866040518082805190602001908083835b6020831015156111af578051825260208201915060208101905060208303925061118a565b6001836020036101000a038019825116818451168082178552505050505050905001915050908152602001604051809103902060009054906101000a900460ff1660028111156111fb57fe5b1480156112de57503373ffffffffffffffffffffffffffffffffffffffff166002600a876040518082805190602001908083835b602083101515611254578051825260208201915060208101905060208303925061122f565b6001836020036101000a03801982511681845116808217855250505050505090500191505090815260200160405180910390205481548110151561129457fe5b906000526020600020906005020160020160009054906101000a900473ffffffffffffffffffffffffffffffffffffffff1673ffffffffffffffffffffffffffffffffffffffff16145b15156112e957600080fd5b600060028111156112f657fe5b6007856040518082805190602001908083835b60208310151561132e5780518252602082019150602081019050602083039250611309565b6001836020036101000a038019825116818451168082178552505050505050905001915050908152602001604051809103902060009054906101000a900460ff16600281111561137a57fe5b141561199b5760026007856040518082805190602001908083835b6020831015156113ba5780518252602082019150602081019050602083039250611395565b6001836020036101000a038019825116818451168082178552505050505050905001915050908152602001604051809103902060006101000a81548160ff0219169083600281111561140857fe5b02179055506004805490506008856040518082805190602001908083835b60208310151561144b5780518252602082019150602081019050602083039250611426565b6001836020036101000a03801982511681845116808217855250505050505090500191505090815260200160405180910390208190555061148a613ed8565b6008856040518082805190602001908083835b6020831015156114c2578051825260208201915060208101905060208303925061149d565b6001836020036101000a038019825116818451168082178552505050505050905001915050908152602001604051809103902054816000018181525050848160200181905250838160400181815250508281606001818152505060048190806001815401808255809150509060018203906000526020600020906004020160009091929091909150600082015181600001556020820151816001019080519060200190611570929190613e0b565b50604082015181600201556060820151816003015550505060026009866040518082805190602001908083835b6020831015156115c2578051825260208201915060208101905060208303925061159d565b6001836020036101000a038019825116818451168082178552505050505050905001915050908152602001604051809103902060006101000a81548160ff0219169083600281111561161057fe5b02179055506008866040518082805190602001908083835b60208310151561164d5780518252602082019150602081019050602083039250611628565b6001836020036101000a038019825116818451168082178552505050505050905001915050908152602001604051809103902054600a866040518082805190602001908083835b6020831015156116b95780518252602082019150602081019050602083039250611694565b6001836020036101000a0380198251168184511680821785525050505050509050019150509081526020016040518091039020819055506003600a866040518082805190602001908083835b60208310151561172a5780518252602082019150602081019050602083039250611705565b6001836020036101000a03801982511681845116808217855250505050505090500191505090815260200160405180910390205481548110151561176a57fe5b90600052602060002090600302016002016008866040518082805190602001908083835b6020831015156117b3578051825260208201915060208101905060208303925061178e565b6001836020036101000a03801982511681845116808217855250505050505090500191505090815260200160405180910390205490806001815401808255809150509060018203906000526020600020016000909192909190915055503373ffffffffffffffffffffffffffffffffffffffff167f3994101b5ffe18d10396a813d8bb4871342073ec95c9f7fc651be42995d19fe5600560003373ffffffffffffffffffffffffffffffffffffffff1673ffffffffffffffffffffffffffffffffffffffff16815260200190815260200160002060009054906101000a900460ff166008896040518082805190602001908083835b6020831015156118cd57805182526020820191506020810190506020830392506118a8565b6001836020036101000a03801982511681845116808217855250505050505090500191505090815260200160405180910390205460078a6040518082805190602001908083835b6020831015156119395780518252602082019150602081019050602083039250611914565b6001836020036101000a038019825116818451168082178552505050505050905001915050908152602001604051809103902060009054906101000a900460ff1660405161198993929190614d68565b60405180910390a26001915050611d41565b6002808111156119a757fe5b6007856040518082805190602001908083835b6020831015156119df57805182526020820191506020810190506020830392506119ba565b6001836020036101000a038019825116818451168082178552505050505050905001915050908152602001604051809103902060009054906101000a900460ff166002811115611a2b57fe5b1415611bbb573373ffffffffffffffffffffffffffffffffffffffff167f3994101b5ffe18d10396a813d8bb4871342073ec95c9f7fc651be42995d19fe5600560003373ffffffffffffffffffffffffffffffffffffffff1673ffffffffffffffffffffffffffffffffffffffff16815260200190815260200160002060009054906101000a900460ff166008876040518082805190602001908083835b602083101515611aee5780518252602082019150602081019050602083039250611ac9565b6001836020036101000a0380198251168184511680821785525050505050509050019150509081526020016040518091039020546007886040518082805190602001908083835b602083101515611b5a5780518252602082019150602081019050602083039250611b35565b6001836020036101000a038019825116818451168082178552505050505050905001915050908152602001604051809103902060009054906101000a900460ff16604051611baa93929190614dfc565b60405180910390a260009050611d41565b3373ffffffffffffffffffffffffffffffffffffffff167f3994101b5ffe18d10396a813d8bb4871342073ec95c9f7fc651be42995d19fe5600560003373ffffffffffffffffffffffffffffffffffffffff1673ffffffffffffffffffffffffffffffffffffffff16815260200190815260200160002060009054906101000a900460ff166008876040518082805190602001908083835b602083101515611c785780518252602082019150602081019050602083039250611c53565b6001836020036101000a0380198251168184511680821785525050505050509050019150509081526020016040518091039020546007886040518082805190602001908083835b602083101515611ce45780518252602082019150602081019050602083039250611cbf565b6001836020036101000a038019825116818451168082178552505050505050905001915050908152602001604051809103902060009054906101000a900460ff16604051611d3493929190614e90565b60405180910390a2600090505b949350505050565b6000806007836040518082805190602001908083835b602083101515611d845780518252602082019150602081019050602083039250611d5f565b6001836020036101000a038019825116818451168082178552505050505050905001915050908152602001604051809103902060009054906101000a900460ff166008846040518082805190602001908083835b602083101515611dfd5780518252602082019150602081019050602083039250611dd8565b6001836020036101000a03801982511681845116808217855250505050505090500191505090815260200160405180910390205491509150915091565b60606003805480602002602001604051908101604052809291908181526020016000905b82821015611f9557838290600052602060002090600302016060604051908101604052908160008201548152602001600182018054600181600116156101000203166002900480601f016020809104026020016040519081016040528092919081815260200182805460018160011615610100020316600290048015611f255780601f10611efa57610100808354040283529160200191611f25565b820191906000526020600020905b815481529060010190602001808311611f0857829003601f168201915b5050505050815260200160028201805480602002602001604051908101604052809291908181526020018280548015611f7d57602002820191906000526020600020905b815481526020019060010190808311611f69575b50505050508152505081526020019060010190611e5e565b50505050905090565b6060600180548060200260200160405190810160405280929190818152602001828054801561202257602002820191906000526020600020905b8160009054906101000a900473ffffffffffffffffffffffffffffffffffffffff1673ffffffffffffffffffffffffffffffffffffffff1681526020019060010190808311611fd8575b5050505050905090565b60008060009054906101000a900460ff1615151561204957600080fd5b60028081111561205557fe5b600560003373ffffffffffffffffffffffffffffffffffffffff1673ffffffffffffffffffffffffffffffffffffffff16815260200190815260200160002060009054906101000a900460ff1660028111156120ad57fe5b1415156120b957600080fd5b816002600660003373ffffffffffffffffffffffffffffffffffffffff1673ffffffffffffffffffffffffffffffffffffffff1681526020019081526020016000205481548110151561210857fe5b9060005260206000209060050201600301541015156122e65760006002600660003373ffffffffffffffffffffffffffffffffffffffff1673ffffffffffffffffffffffffffffffffffffffff1681526020019081526020016000205481548110151561217157fe5b90600052602060002090600502016003015490506121988382613d7c90919063ffffffff16565b6002600660003373ffffffffffffffffffffffffffffffffffffffff1673ffffffffffffffffffffffffffffffffffffffff168152602001908152602001600020548154811015156121e657fe5b9060005260206000209060050201600301819055503373ffffffffffffffffffffffffffffffffffffffff166108fc849081150290604051600060405180830381858888f19350505050158015612241573d6000803e3d6000fd5b503373ffffffffffffffffffffffffffffffffffffffff167fbc61b5c52c51215edb4eab4fe3c88d09f45c01c91273cd0130d1c023c561477c600560003373ffffffffffffffffffffffffffffffffffffffff1673ffffffffffffffffffffffffffffffffffffffff16815260200190815260200160002060009054906101000a900460ff166040516122d49190614cb4565b60405180910390a26001915050612385565b3373ffffffffffffffffffffffffffffffffffffffff167fbc61b5c52c51215edb4eab4fe3c88d09f45c01c91273cd0130d1c023c561477c600560003373ffffffffffffffffffffffffffffffffffffffff1673ffffffffffffffffffffffffffffffffffffffff16815260200190815260200160002060009054906101000a900460ff166040516123789190614c73565b60405180910390a2600090505b919050565b6000806009836040518082805190602001908083835b6020831015156123c557805182526020820191506020810190506020830392506123a0565b6001836020036101000a038019825116818451168082178552505050505050905001915050908152602001604051809103902060009054906101000a900460ff16600a846040518082805190602001908083835b60208310151561243e5780518252602082019150602081019050602083039250612419565b6001836020036101000a03801982511681845116808217855250505050505090500191505090815260200160405180910390205491509150915091565b6000809054906101000a900460ff1681565b60008060009054906101000a900460ff161515156124aa57600080fd5b600060019054906101000a900473ffffffffffffffffffffffffffffffffffffffff1673ffffffffffffffffffffffffffffffffffffffff163373ffffffffffffffffffffffffffffffffffffffff1614151561250657600080fd5b6000600281111561251357fe5b600560008473ffffffffffffffffffffffffffffffffffffffff1673ffffffffffffffffffffffffffffffffffffffff16815260200190815260200160002060009054906101000a900460ff16600281111561256b57fe5b1415612724576001600560008473ffffffffffffffffffffffffffffffffffffffff1673ffffffffffffffffffffffffffffffffffffffff16815260200190815260200160002060006101000a81548160ff021916908360028111156125cd57fe5b0217905550600180549050600660008473ffffffffffffffffffffffffffffffffffffffff1673ffffffffffffffffffffffffffffffffffffffff1681526020019081526020016000208190555060018290806001815401808255809150509060018203906000526020600020016000909192909190916101000a81548173ffffffffffffffffffffffffffffffffffffffff021916908373ffffffffffffffffffffffffffffffffffffffff160217905550508173ffffffffffffffffffffffffffffffffffffffff167f8c67e72dddf24f30cfecaf737da2ee3ae2068b1b6ce8ed2fa14550706992c6dd600560008573ffffffffffffffffffffffffffffffffffffffff1673ffffffffffffffffffffffffffffffffffffffff16815260200190815260200160002060009054906101000a900460ff166040516127139190614add565b60405180910390a2600190506128d1565b6001600281111561273157fe5b600560008473ffffffffffffffffffffffffffffffffffffffff1673ffffffffffffffffffffffffffffffffffffffff16815260200190815260200160002060009054906101000a900460ff16600281111561278957fe5b1415612832578173ffffffffffffffffffffffffffffffffffffffff167f8c67e72dddf24f30cfecaf737da2ee3ae2068b1b6ce8ed2fa14550706992c6dd600560008573ffffffffffffffffffffffffffffffffffffffff1673ffffffffffffffffffffffffffffffffffffffff16815260200190815260200160002060009054906101000a900460ff166040516128219190614b8d565b60405180910390a2600090506128d1565b8173ffffffffffffffffffffffffffffffffffffffff167f8c67e72dddf24f30cfecaf737da2ee3ae2068b1b6ce8ed2fa14550706992c6dd600560008573ffffffffffffffffffffffffffffffffffffffff1673ffffffffffffffffffffffffffffffffffffffff16815260200190815260200160002060009054906101000a900460ff166040516128c49190614c45565b60405180910390a2600090505b919050565b6004818154811015156128e557fe5b9060005260206000209060040201600091509050806000015490806001018054600181600116156101000203166002900480601f0160208091040260200160405190810160405280929190818152602001828054600181600116156101000203166002900480156129975780601f1061296c57610100808354040283529160200191612997565b820191906000526020600020905b81548152906001019060200180831161297a57829003601f168201915b5050505050908060020154908060030154905084565b60606002805480602002602001604051908101604052809291908181526020016000905b82821015612b68578382906000526020600020906005020160a0604051908101604052908160008201548152602001600182018054600181600116156101000203166002900480601f016020809104026020016040519081016040528092919081815260200182805460018160011615610100020316600290048015612a985780601f10612a6d57610100808354040283529160200191612a98565b820191906000526020600020905b815481529060010190602001808311612a7b57829003601f168201915b505050505081526020016002820160009054906101000a900473ffffffffffffffffffffffffffffffffffffffff1673ffffffffffffffffffffffffffffffffffffffff1673ffffffffffffffffffffffffffffffffffffffff1681526020016003820154815260200160048201805480602002602001604051908101604052809291908181526020018280548015612b5057602002820191906000526020600020905b815481526020019060010190808311612b3c575b505050505081525050815260200190600101906129d1565b50505050905090565b600181815481101515612b8057fe5b906000526020600020016000915054906101000a900473ffffffffffffffffffffffffffffffffffffffff1681565b60008060009054906101000a900460ff16151515612bcc57600080fd5b60016002811115612bd957fe5b600560003373ffffffffffffffffffffffffffffffffffffffff1673ffffffffffffffffffffffffffffffffffffffff16815260200190815260200160002060009054906101000a900460ff166002811115612c3157fe5b141515612c3d57600080fd5b60006002811115612c4a57fe5b600560008573ffffffffffffffffffffffffffffffffffffffff1673ffffffffffffffffffffffffffffffffffffffff16815260200190815260200160002060009054906101000a900460ff166002811115612ca257fe5b1415612f59576002600560008573ffffffffffffffffffffffffffffffffffffffff1673ffffffffffffffffffffffffffffffffffffffff16815260200190815260200160002060006101000a81548160ff02191690836002811115612d0457fe5b0217905550600280549050600660008573ffffffffffffffffffffffffffffffffffffffff1673ffffffffffffffffffffffffffffffffffffffff16815260200190815260200160002081905550612d5a613f01565b600660008573ffffffffffffffffffffffffffffffffffffffff1673ffffffffffffffffffffffffffffffffffffffff1681526020019081526020016000205481600001818152505082816020018190525083816040019073ffffffffffffffffffffffffffffffffffffffff16908173ffffffffffffffffffffffffffffffffffffffff1681525050600081606001818152505060028190806001815401808255809150509060018203906000526020600020906005020160009091929091909150600082015181600001556020820151816001019080519060200190612e43929190613e0b565b5060408201518160020160006101000a81548173ffffffffffffffffffffffffffffffffffffffff021916908373ffffffffffffffffffffffffffffffffffffffff160217905550606082015181600301556080820151816004019080519060200190612eb1929190613e8b565b505050508373ffffffffffffffffffffffffffffffffffffffff167f8c67e72dddf24f30cfecaf737da2ee3ae2068b1b6ce8ed2fa14550706992c6dd600560008773ffffffffffffffffffffffffffffffffffffffff1673ffffffffffffffffffffffffffffffffffffffff16815260200190815260200160002060009054906101000a900460ff16604051612f479190614be9565b60405180910390a26001915050613105565b600280811115612f6557fe5b600560008573ffffffffffffffffffffffffffffffffffffffff1673ffffffffffffffffffffffffffffffffffffffff16815260200190815260200160002060009054906101000a900460ff166002811115612fbd57fe5b1415613066578273ffffffffffffffffffffffffffffffffffffffff167f8c67e72dddf24f30cfecaf737da2ee3ae2068b1b6ce8ed2fa14550706992c6dd600560008673ffffffffffffffffffffffffffffffffffffffff1673ffffffffffffffffffffffffffffffffffffffff16815260200190815260200160002060009054906101000a900460ff166040516130559190614c17565b60405180910390a260009050613105565b8273ffffffffffffffffffffffffffffffffffffffff167f8c67e72dddf24f30cfecaf737da2ee3ae2068b1b6ce8ed2fa14550706992c6dd600560008673ffffffffffffffffffffffffffffffffffffffff1673ffffffffffffffffffffffffffffffffffffffff16815260200190815260200160002060009054906101000a900460ff166040516130f89190614bbb565b60405180910390a2600090505b92915050565b60008060009054906101000a900460ff16151561312757600080fd5b600060019054906101000a900473ffffffffffffffffffffffffffffffffffffffff1673ffffffffffffffffffffffffffffffffffffffff163373ffffffffffffffffffffffffffffffffffffffff1614151561318357600080fd5b60008060006101000a81548160ff0219169083151502179055506000809054906101000a900460ff1615905090565b60606004805480602002602001604051908101604052809291908181526020016000905b828210156132c957838290600052602060002090600402016080604051908101604052908160008201548152602001600182018054600181600116156101000203166002900480601f01602080910402602001604051908101604052809291908181526020018280546001816001161561010002031660029004801561329d5780601f106132725761010080835404028352916020019161329d565b820191906000526020600020905b81548152906001019060200180831161328057829003601f168201915b5050505050815260200160028201548152602001600382015481525050815260200190600101906131d6565b50505050905090565b600060019054906101000a900473ffffffffffffffffffffffffffffffffffffffff1681565b60038181548110151561330757fe5b9060005260206000209060030201600091509050806000015490806001018054600181600116156101000203166002900480601f0160208091040260200160405190810160405280929190818152602001828054600181600116156101000203166002900480156133b95780601f1061338e576101008083540402835291602001916133b9565b820191906000526020600020905b81548152906001019060200180831161339c57829003601f168201915b5050505050905082565b60008060019054906101000a900473ffffffffffffffffffffffffffffffffffffffff1673ffffffffffffffffffffffffffffffffffffffff163373ffffffffffffffffffffffffffffffffffffffff1614151561342057600080fd5b60016000806101000a81548160ff0219169083151502179055506000809054906101000a900460ff16905090565b60028181548110151561345d57fe5b9060005260206000209060050201600091509050806000015490806001018054600181600116156101000203166002900480601f01602080910402602001604051908101604052809291908181526020018280546001816001161561010002031660029004801561350f5780601f106134e45761010080835404028352916020019161350f565b820191906000526020600020905b8154815290600101906020018083116134f257829003601f168201915b5050505050908060020160009054906101000a900473ffffffffffffffffffffffffffffffffffffffff16908060030154905084565b60008060009054906101000a900460ff1615151561356257600080fd5b6000600281111561356f57fe5b600560003373ffffffffffffffffffffffffffffffffffffffff1673ffffffffffffffffffffffffffffffffffffffff16815260200190815260200160002060009054906101000a900460ff1660028111156135c757fe5b1415156135d357600080fd5b6002808111156135df57fe5b6007846040518082805190602001908083835b60208310151561361757805182526020820191506020810190506020830392506135f2565b6001836020036101000a038019825116818451168082178552505050505050905001915050908152602001604051809103902060009054906101000a900460ff16600281111561366357fe5b14151561366f57600080fd5b8160046008856040518082805190602001908083835b6020831015156136aa5780518252602082019150602081019050602083039250613685565b6001836020036101000a0380198251168184511680821785525050505050509050019150509081526020016040518091039020548154811015156136ea57fe5b906000526020600020906004020160030154101580156137a757506137a38260046008866040518082805190602001908083835b602083101515613743578051825260208201915060208101905060208303925061371e565b6001836020036101000a03801982511681845116808217855250505050505090500191505090815260200160405180910390205481548110151561378357fe5b906000526020600020906004020160020154613d9590919063ffffffff16565b3410155b15613cd757600061384c8360046008876040518082805190602001908083835b6020831015156137ec57805182526020820191506020810190506020830392506137c7565b6001836020036101000a03801982511681845116808217855250505050505090500191505090815260200160405180910390205481548110151561382c57fe5b906000526020600020906004020160020154613d9590919063ffffffff16565b905060006138638234613d7c90919063ffffffff16565b905060006002600a6003600a896040518082805190602001908083835b6020831015156138a55780518252602082019150602081019050602083039250613880565b6001836020036101000a0380198251168184511680821785525050505050509050019150509081526020016040518091039020548154811015156138e557fe5b906000526020600020906003020160010160405180828054600181600116156101000203166002900480156139515780601f1061392f576101008083540402835291820191613951565b820191906000526020600020905b81548152906001019060200180831161393d575b505091505090815260200160405180910390205481548110151561397157fe5b90600052602060002090600502016003015490506139988382613dcd90919063ffffffff16565b6002600a6003600a8a6040518082805190602001908083835b6020831015156139d657805182526020820191506020810190506020830392506139b1565b6001836020036101000a038019825116818451168082178552505050505050905001915050908152602001604051809103902054815481101515613a1657fe5b90600052602060002090600302016001016040518082805460018160011615610100020316600290048015613a825780601f10613a60576101008083540402835291820191613a82565b820191906000526020600020905b815481529060010190602001808311613a6e575b5050915050908152602001604051809103902054815481101515613aa257fe5b906000526020600020906005020160030181905550600060046008886040518082805190602001908083835b602083101515613af35780518252602082019150602081019050602083039250613ace565b6001836020036101000a038019825116818451168082178552505050505050905001915050908152602001604051809103902054815481101515613b3357fe5b9060005260206000209060040201600301549050613b5a8682613d7c90919063ffffffff16565b60046008896040518082805190602001908083835b602083101515613b945780518252602082019150602081019050602083039250613b6f565b6001836020036101000a038019825116818451168082178552505050505050905001915050908152602001604051809103902054815481101515613bd457fe5b9060005260206000209060040201600301819055503373ffffffffffffffffffffffffffffffffffffffff166108fc849081150290604051600060405180830381858888f19350505050158015613c2f573d6000803e3d6000fd5b503373ffffffffffffffffffffffffffffffffffffffff167fbc61b5c52c51215edb4eab4fe3c88d09f45c01c91273cd0130d1c023c561477c600560003373ffffffffffffffffffffffffffffffffffffffff1673ffffffffffffffffffffffffffffffffffffffff16815260200190815260200160002060009054906101000a900460ff16604051613cc29190614b4c565b60405180910390a26001945050505050613d76565b3373ffffffffffffffffffffffffffffffffffffffff167fbc61b5c52c51215edb4eab4fe3c88d09f45c01c91273cd0130d1c023c561477c600560003373ffffffffffffffffffffffffffffffffffffffff1673ffffffffffffffffffffffffffffffffffffffff16815260200190815260200160002060009054906101000a900460ff16604051613d699190614b0b565b60405180910390a2600090505b92915050565b6000828211151515613d8a57fe5b818303905092915050565b600080831415613da85760009050613dc7565b8183029050818382811515613db957fe5b04141515613dc357fe5b8090505b92915050565b60008183019050828110151515613de057fe5b80905092915050565b6060604051908101604052806000815260200160608152602001606081525090565b828054600181600116156101000203166002900490600052602060002090601f016020900481019282601f10613e4c57805160ff1916838001178555613e7a565b82800160010185558215613e7a579182015b82811115613e79578251825591602001919060010190613e5e565b5b509050613e879190613f47565b5090565b828054828255906000526020600020908101928215613ec7579160200282015b82811115613ec6578251825591602001919060010190613eab565b5b509050613ed49190613f47565b5090565b608060405190810160405280600081526020016060815260200160008152602001600081525090565b60a0604051908101604052806000815260200160608152602001600073ffffffffffffffffffffffffffffffffffffffff16815260200160008152602001606081525090565b613f6991905b80821115613f65576000816000905550600101613f4d565b5090565b90565b6000613f78823561519b565b905092915050565b600082601f8301121515613f9357600080fd5b8135613fa6613fa182615021565b614ff4565b91508082526020830160208301858383011115613fc257600080fd5b613fcd8382846151ed565b50505092915050565b6000613fe282356151ad565b905092915050565b600060208284031215613ffc57600080fd5b600061400a84828501613f6c565b91505092915050565b6000806040838503121561402657600080fd5b600061403485828601613f6c565b925050602083013567ffffffffffffffff81111561405157600080fd5b61405d85828601613f80565b9150509250929050565b60006020828403121561407957600080fd5b600082013567ffffffffffffffff81111561409357600080fd5b61409f84828501613f80565b91505092915050565b600080600080608085870312156140be57600080fd5b600085013567ffffffffffffffff8111156140d857600080fd5b6140e487828801613f80565b945050602085013567ffffffffffffffff81111561410157600080fd5b61410d87828801613f80565b935050604061411e87828801613fd6565b925050606061412f87828801613fd6565b91505092959194509250565b6000806040838503121561414e57600080fd5b600083013567ffffffffffffffff81111561416857600080fd5b61417485828601613f80565b925050602061418585828601613fd6565b9150509250929050565b6000602082840312156141a157600080fd5b60006141af84828501613fd6565b91505092915050565b6141c181615111565b82525050565b60006141d28261508e565b8084526020840193506141e48361504d565b60005b82811015614216576141fa8683516141b8565b614203826150d0565b91506020860195506001810190506141e7565b50849250505092915050565b600061422d82615099565b808452602084019350836020820285016142468561505a565b60005b8481101561427f5783830388526142618383516148d9565b925061426c826150dd565b9150602088019750600181019050614249565b508196508694505050505092915050565b600061429b826150a4565b808452602084019350836020820285016142b485615067565b60005b848110156142ed5783830388526142cf83835161493c565b92506142da826150ea565b91506020880197506001810190506142b7565b508196508694505050505092915050565b6000614309826150af565b8084526020840193508360208202850161432285615074565b60005b8481101561435b57838303885261433d838351614993565b9250614348826150f7565b9150602088019750600181019050614325565b508196508694505050505092915050565b6000614377826150ba565b80845260208401935061438983615081565b60005b828110156143bb5761439f868351614a10565b6143a882615104565b915060208601955060018101905061438c565b50849250505092915050565b6143d081615123565b82525050565b6143df816151b7565b82525050565b6143ee816151c9565b82525050565b6143fd816151db565b82525050565b600061440e826150c5565b8084526144228160208601602086016151fc565b61442b8161522f565b602085010191505092915050565b6000601d82527f4e65776c792041646465642061732041646d696e6973747261746f72210000006020830152604082019050919050565b6000604682527f4661696c656420746f204164642061732053746f726546726f6e742120416c7260208301527f656164792045786973747320617320416e6f746865722054797065206f66204f60408301527f626a6563742100000000000000000000000000000000000000000000000000006060830152608082019050919050565b6000601782527f4e65776c792041646465642061732050726f64756374210000000000000000006020830152604082019050919050565b6000600b82527f4275792050726f647563740000000000000000000000000000000000000000006020830152604082019050919050565b6000601d82527f416c7265616479204578697374732061732053746f726546726f6e74210000006020830152604082019050919050565b6000601a82527f416c7265616479204578697374732061732050726f64756374210000000000006020830152604082019050919050565b6000602082527f416c7265616479204578697374732061732041646d696e6973747261746f72216020830152604082019050919050565b6000601a82527f4e65776c792041646465642061732053746f726546726f6e74210000000000006020830152604082019050919050565b6000604582527f4661696c656420746f204164642061732053746f72654f776e65722120416c7260208301527f656164792045786973747320617320416e6f746865722054797065206f66204160408301527f63746f72210000000000000000000000000000000000000000000000000000006060830152608082019050919050565b6000601a82527f4e65776c792041646465642061732053746f72654f776e6572210000000000006020830152604082019050919050565b6000601d82527f416c7265616479204578697374732061732053746f72654f776e6572210000006020830152604082019050919050565b6000600782527f4661696c656421000000000000000000000000000000000000000000000000006020830152604082019050919050565b6000600b82527f5375636365737366756c210000000000000000000000000000000000000000006020830152604082019050919050565b6000604382527f4661696c656420746f204164642061732050726f647563742120416c7265616460208301527f792045786973747320617320416e6f746865722054797065206f66204f626a6560408301527f63742100000000000000000000000000000000000000000000000000000000006060830152608082019050919050565b6000604882527f4661696c656420746f204164642061732041646d696e6973747261746f72212060208301527f416c72656164792045786973747320617320416e6f746865722054797065206f60408301527f66204163746f72210000000000000000000000000000000000000000000000006060830152608082019050919050565b6000601082527f57697468647261772042616c616e6365000000000000000000000000000000006020830152604082019050919050565b60006080830160008301516148f16000860182614a10565b50602083015184820360208601526149098282614403565b915050604083015161491e6040860182614a10565b5060608301516149316060860182614a10565b508091505092915050565b60006060830160008301516149546000860182614a10565b506020830151848203602086015261496c8282614403565b91505060408301518482036040860152614986828261436c565b9150508091505092915050565b600060a0830160008301516149ab6000860182614a10565b50602083015184820360208601526149c38282614403565b91505060408301516149d860408601826141b8565b5060608301516149eb6060860182614a10565b5060808301518482036080860152614a03828261436c565b9150508091505092915050565b614a1981615191565b82525050565b6000602082019050614a3460008301846141b8565b92915050565b60006020820190508181036000830152614a5481846141c7565b905092915050565b60006020820190508181036000830152614a768184614222565b905092915050565b60006020820190508181036000830152614a988184614290565b905092915050565b60006020820190508181036000830152614aba81846142fe565b905092915050565b6000602082019050614ad760008301846143c7565b92915050565b6000604082019050614af260008301846143d6565b8181036020830152614b0381614439565b905092915050565b6000606082019050614b2060008301846143d6565b8181036020830152614b318161452a565b90508181036040830152614b448161472e565b905092915050565b6000606082019050614b6160008301846143d6565b8181036020830152614b728161452a565b90508181036040830152614b8581614765565b905092915050565b6000604082019050614ba260008301846143d6565b8181036020830152614bb3816145cf565b905092915050565b6000604082019050614bd060008301846143d6565b8181036020830152614be18161463d565b905092915050565b6000604082019050614bfe60008301846143d6565b8181036020830152614c0f816146c0565b905092915050565b6000604082019050614c2c60008301846143d6565b8181036020830152614c3d816146f7565b905092915050565b6000604082019050614c5a60008301846143d6565b8181036020830152614c6b8161481f565b905092915050565b6000606082019050614c8860008301846143d6565b8181036020830152614c99816148a2565b90508181036040830152614cac8161472e565b905092915050565b6000606082019050614cc960008301846143d6565b8181036020830152614cda816148a2565b90508181036040830152614ced81614765565b905092915050565b6000604082019050614d0a60008301856143d6565b614d176020830184614a10565b9392505050565b6000608082019050614d3360008301866143d6565b614d406020830185614a10565b614d4d60408301846143f4565b8181036060830152614d5e81614470565b9050949350505050565b6000608082019050614d7d60008301866143d6565b614d8a6020830185614a10565b614d9760408301846143f4565b8181036060830152614da8816144f3565b9050949350505050565b6000608082019050614dc760008301866143d6565b614dd46020830185614a10565b614de160408301846143f4565b8181036060830152614df281614561565b9050949350505050565b6000608082019050614e1160008301866143d6565b614e1e6020830185614a10565b614e2b60408301846143f4565b8181036060830152614e3c81614598565b9050949350505050565b6000608082019050614e5b60008301866143d6565b614e686020830185614a10565b614e7560408301846143f4565b8181036060830152614e8681614606565b9050949350505050565b6000608082019050614ea560008301866143d6565b614eb26020830185614a10565b614ebf60408301846143f4565b8181036060830152614ed08161479c565b9050949350505050565b6000604082019050614eef60008301856143e5565b614efc6020830184614a10565b9392505050565b6000604082019050614f1860008301856143f4565b614f256020830184614a10565b9392505050565b6000604082019050614f416000830185614a10565b8181036020830152614f538184614403565b90509392505050565b6000608082019050614f716000830187614a10565b8181036020830152614f838186614403565b9050614f9260408301856141b8565b614f9f6060830184614a10565b95945050505050565b6000608082019050614fbd6000830187614a10565b8181036020830152614fcf8186614403565b9050614fde6040830185614a10565b614feb6060830184614a10565b95945050505050565b6000604051905081810181811067ffffffffffffffff8211171561501757600080fd5b8060405250919050565b600067ffffffffffffffff82111561503857600080fd5b601f19601f8301169050602081019050919050565b6000602082019050919050565b6000602082019050919050565b6000602082019050919050565b6000602082019050919050565b6000602082019050919050565b600081519050919050565b600081519050919050565b600081519050919050565b600081519050919050565b600081519050919050565b600081519050919050565b6000602082019050919050565b6000602082019050919050565b6000602082019050919050565b6000602082019050919050565b6000602082019050919050565b600061511c82615171565b9050919050565b60008115159050919050565b600060038210151561513d57fe5b819050919050565b600060038210151561515357fe5b819050919050565b600060038210151561516957fe5b819050919050565b600073ffffffffffffffffffffffffffffffffffffffff82169050919050565b6000819050919050565b60006151a682615171565b9050919050565b6000819050919050565b60006151c28261512f565b9050919050565b60006151d482615145565b9050919050565b60006151e68261515b565b9050919050565b82818337600083830152505050565b60005b8381101561521a5780820151818401526020810190506151ff565b83811115615229576000848401525b50505050565b6000601f19601f830116905091905056fea265627a7a7230582077e11353a535d30f8b37b5f2c48b0a97ccf1304b7ae9a7427f1fd46a82422e016c6578706572696d656e74616cf50037",
  "source": "pragma solidity ^0.5.0;\npragma experimental ABIEncoderV2;\nimport \"./SafeMath.sol\"; // Demonstration of usage of Library. SafeMath local instance is adapted to solidity 0.5.0\n\ncontract MarketPlace {\n\n  using SafeMath for uint;\n\n  bool public Emergency; // Circuit-breaker flag\n\n  address public SuperAdministrator; // Super Administrator who is owner of the MarketPlace contract and can add other Administrators\n\n  address[] public AdministratorList; // List of Administrators\n  StoreOwner[] public StoreOwnerList; // List of Store Owners\n  StoreFront[] public StoreFrontList; // List of Store Fronts\n  Product[] public ProductList; // List of Products\n\n  struct StoreOwner {\n    uint so_id; //Store Owner ID\n    string so_name; //Store Owner Name\n    address so_address; //Store Owner Address\n    uint so_balance; //Store Owner Balance\n    uint[] so_sf_ids; //Array of StoreFront IDs (used as Indices to retrieve the relevant StoreFront object from StoreFrontList Array)\n  }\n\n  struct StoreFront {\n    uint sf_id; //Store Front ID\n    string sf_name; //Store Front Name\n    uint[] sf_pdt_ids; ////Array of Product IDs (used as Indices to retrieve the relevant Product object from ProductList Array)\n  }\n\n  struct Product {\n    uint pdt_id; //Product ID\n    string pdt_name; //Product Name\n    uint pdt_price; //Product Price\n    uint pdt_qty; //Product Quantity\n  }\n\n  enum ActorType {NonExistentActor, Administrator, StoreOwner}\n  enum ObjectType {NonExistentObject, StoreFront, Product}\n  enum ObjectOwnerType {NonExistentObjectOwner, StoreOwner, StoreFront}\n\n  mapping (address => ActorType) Actors; //Administrators and StoreOwners are considered Actors\n  mapping (address => uint) ActorIDs; //Mapping Actors to their respective IDs can be used to retrieve them for their respective List Array\n  mapping (string => ObjectType) Objects; //StoreFronts and Products are considered Objects\n  mapping (string => uint) ObjectIDs; //Mapping Objects to their respective IDs can be used to retrieve them for their respective List Array\n  mapping (string => ObjectOwnerType) ObjectOwners; //StoreOwners and StoreFronts are considered Object Owners.\n  mapping (string => uint) ObjectOwnerIDs; //Mapping Object Owners to their respective IDs can be used to retrieve them for their respective List Array\n\n  event ActorRegistryUpdate(address indexed _actor_id, ActorType _actor_type, string _status);\n  event ObjectRegistryUpdate(address indexed _actor_id, ActorType _actor_type, uint _object_id, ObjectType _object_type, string _status);\n  event TransactionRegistryUpdate(address indexed _actor_id, ActorType _actor_type, string _transaction_type, string _status);\n\n  modifier StopInEmergency() {require(!Emergency); _;} //Allows normal user functioning of MarketPlace only in the absence of an Emergency\n  modifier OnlyInEmergency() {require(Emergency); _;} //Allows only SuperAdministrator to perform Emergency function like Lifting Emergency\n  modifier isSuperAdministrator() {require(msg.sender == SuperAdministrator); _;} //Can execute only if SuperAdministrator\n  modifier isAdministrator() {require(Actors[msg.sender] == ActorType.Administrator); _;} //Can execute only if Administrator\n  modifier isStoreOwner() {require(Actors[msg.sender] == ActorType.StoreOwner); _;} //Can execute only if StoreOwner\n  modifier isShopper() {require(Actors[msg.sender] == ActorType.NonExistentActor); _;} //Can execute only if Shopper (i.e., not in the mapped list of Actors)\n\n  constructor() public {\n       SuperAdministrator = msg.sender;\n       Actors[SuperAdministrator] = ActorType.Administrator;\n       AdministratorList.push(SuperAdministrator); //SuperAdministrator is the very first Administrator\n  }\n\n    /*SuperAdministrator Functions*/\n\n  function DeclareEmergency() //Impose Circuit-breaker in case of emergency\n  public\n  isSuperAdministrator\n  returns(bool)\n  {\n    Emergency = true;\n    return (Emergency);\n  }\n\n  function LiftEmergency() //Lift Circuit-breaker once emergency is addressed\n  public\n  OnlyInEmergency isSuperAdministrator\n  returns(bool)\n  {\n    Emergency = false;\n    return (!Emergency);\n  }\n\n  function AddAdministrator(address _Administrator) // A function where by only SuperAdministrator can add an Administrator. Returns true if Successful and false if Administrator already exists as Administrator type or exists as another ActorType.\n  public\n  StopInEmergency isSuperAdministrator\n  returns(bool){\n    if(Actors[_Administrator] == ActorType.NonExistentActor)\n    {\n        Actors[_Administrator] = ActorType.Administrator;\n        ActorIDs[_Administrator] = AdministratorList.length;\n        AdministratorList.push(_Administrator); //Add to AdministratorList\n        emit ActorRegistryUpdate(_Administrator, Actors[_Administrator],\"Newly Added as Administrator!\");\n        return true;\n    }\n    else\n    {\n        if(Actors[_Administrator] == ActorType.Administrator)\n        {\n            emit ActorRegistryUpdate(_Administrator, Actors[_Administrator],\"Already Exists as Administrator!\");\n            return false;\n        }\n        else\n        {\n            emit ActorRegistryUpdate(_Administrator, Actors[_Administrator],\"Failed to Add as Administrator! Already Exists as Another Type of Actor!\");\n            return false;\n        }\n    }\n  }\n\n    /*Administrator Functions*/\n\n  // A function where by only an Administrator can add a Store Owner.\n  //Returns true if Successful and false if Store Owner already exists as Store Owner type or exists as another ActorType.\n\n  function AddStoreOwner(address _StoreOwner, string memory _StoreOwnerName)\n  public\n  StopInEmergency isAdministrator\n  returns (bool){\n    if(Actors[_StoreOwner] == ActorType.NonExistentActor)\n    {\n      Actors[_StoreOwner] = ActorType.StoreOwner;\n      ActorIDs[_StoreOwner] = StoreOwnerList.length;\n\n      StoreOwner memory _tempStoreOwner;\n      _tempStoreOwner.so_id = ActorIDs[_StoreOwner];\n      _tempStoreOwner.so_name = _StoreOwnerName;\n      _tempStoreOwner.so_address = _StoreOwner;\n      _tempStoreOwner.so_balance = 0; //Initialize store owner balance as 0\n\n      StoreOwnerList.push(_tempStoreOwner); //Add to StoreOwnerlist\n      emit ActorRegistryUpdate(_StoreOwner, Actors[_StoreOwner], \"Newly Added as StoreOwner!\");\n      return true;\n    }\n    else\n    {\n        if(Actors[_StoreOwner] == ActorType.StoreOwner)\n        {\n            emit ActorRegistryUpdate(_StoreOwner, Actors[_StoreOwner],\"Already Exists as StoreOwner!\");\n            return false;\n        }\n        else\n        {\n            emit ActorRegistryUpdate(_StoreOwner, Actors[_StoreOwner],\"Failed to Add as StoreOwner! Already Exists as Another Type of Actor!\");\n            return false;\n        }\n    }\n  }\n\n    /*StoreOwner Functions*/\n\n  //A function where by only a Store Owner can add a Store Front.\n  //Returns true if Successful and false if Store Front already exists as Store Front type or exists as another ObjectType.\n\n  function AddStoreFront(string memory _StoreFrontName)\n  public\n  StopInEmergency isStoreOwner\n  returns (bool){\n    if(Objects[_StoreFrontName] == ObjectType.NonExistentObject)\n    {\n      Objects[_StoreFrontName] = ObjectType.StoreFront;\n      ObjectIDs[_StoreFrontName] = StoreFrontList.length;\n\n      StoreFront memory _tempStoreFront;\n      _tempStoreFront.sf_id = ObjectIDs[_StoreFrontName];\n      _tempStoreFront.sf_name = _StoreFrontName;\n\n      StoreFrontList.push(_tempStoreFront); //Add to StorefrontList\n      ObjectOwners[_StoreFrontName] = ObjectOwnerType.StoreOwner; // Track the ObjectOwnerType as Storeowner\n      ObjectOwnerIDs[_StoreFrontName] = ActorIDs[msg.sender]; // Track the ID of ObjectOwner (i.e., StoreOwner) to easily retrieve by index from Array StoreOwnerList\n      StoreOwnerList[ObjectOwnerIDs[_StoreFrontName]].so_sf_ids.push(ObjectIDs[_StoreFrontName]); // Track StoreFront ID in an Array within StoreOwner owner to easily retrieve by index from Array StoreFrontList\n\n      emit ObjectRegistryUpdate(msg.sender, Actors[msg.sender], ObjectIDs[_StoreFrontName], Objects[_StoreFrontName], \"Newly Added as StoreFront!\");\n      return true;\n    }\n    else\n    {\n        if(Objects[_StoreFrontName] == ObjectType.StoreFront)\n        {\n            emit ObjectRegistryUpdate(msg.sender, Actors[msg.sender], ObjectIDs[_StoreFrontName], Objects[_StoreFrontName], \"Already Exists as StoreFront!\");\n            return true;\n        }\n        else\n        {\n            emit ObjectRegistryUpdate(msg.sender, Actors[msg.sender], ObjectIDs[_StoreFrontName], Objects[_StoreFrontName], \"Failed to Add as StoreFront! Already Exists as Another Type of Object!\");\n            return false;\n        }\n    }\n  }\n\n  //A function where by only a Store Owner can add a Product under a specific Store Front.\n  //Returns true if Successful and false if Product already exists as Product Type or exists as another ObjectType.\n\n  function AddProduct(string memory _StoreFrontName, string memory _ProductName, uint _ProductPrice, uint _ProductQty)\n  public\n  StopInEmergency isStoreOwner\n  returns (bool){\n    require (Objects[_StoreFrontName] == ObjectType.StoreFront && StoreOwnerList[ObjectOwnerIDs[_StoreFrontName]].so_address == msg.sender);\n\n    if(Objects[_ProductName] == ObjectType.NonExistentObject)\n    {\n      Objects[_ProductName] = ObjectType.Product;\n      ObjectIDs[_ProductName] = ProductList.length;\n\n      Product memory _tempProduct;\n      _tempProduct.pdt_id = ObjectIDs[_ProductName];\n      _tempProduct.pdt_name = _ProductName;\n      _tempProduct.pdt_price = _ProductPrice;\n      _tempProduct.pdt_qty = _ProductQty;\n\n      ProductList.push(_tempProduct); //Add to ProductList\n      ObjectOwners[_ProductName] = ObjectOwnerType.StoreFront; // Track the ObjectOwnerType as StoreFront\n      ObjectOwnerIDs[_ProductName] = ObjectIDs[_StoreFrontName]; // Track the ID of ObjectOwner (i.e., StoreFront) to easily retrieve by index from Array StoreFrontList\n      StoreFrontList[ObjectOwnerIDs[_ProductName]].sf_pdt_ids.push(ObjectIDs[_ProductName]); // Track Product ID in an Array within the StoreFront owner to easily retrieve by index from Array ProductList\n\n      emit ObjectRegistryUpdate(msg.sender, Actors[msg.sender], ObjectIDs[_StoreFrontName], Objects[_StoreFrontName], \"Newly Added as Product!\");\n      return true;\n    }\n    else\n    {\n        if(Objects[_ProductName] == ObjectType.Product)\n        {\n            emit ObjectRegistryUpdate(msg.sender, Actors[msg.sender], ObjectIDs[_ProductName], Objects[_ProductName], \"Already Exists as Product!\");\n            return false;\n        }\n        else\n        {\n            emit ObjectRegistryUpdate(msg.sender, Actors[msg.sender], ObjectIDs[_ProductName], Objects[_ProductName], \"Failed to Add as Product! Already Exists as Another Type of Object!\");\n            return false;\n        }\n    }\n  }\n\n  function WithdrawBalance(uint _WithdrawAmount)\n  public\n  StopInEmergency isStoreOwner\n  returns(bool)\n  {\n    if(StoreOwnerList[ActorIDs[msg.sender]].so_balance >= _WithdrawAmount)\n    {\n        uint storeOwnerbalance = StoreOwnerList[ActorIDs[msg.sender]].so_balance;\n        StoreOwnerList[ActorIDs[msg.sender]].so_balance = storeOwnerbalance.sub(_WithdrawAmount);\n        msg.sender.transfer(_WithdrawAmount);\n        emit TransactionRegistryUpdate(msg.sender, Actors[msg.sender], \"Withdraw Balance\",\"Successful!\");\n        return true;\n    }\n    else\n    {\n        emit TransactionRegistryUpdate(msg.sender, Actors[msg.sender], \"Withdraw Balance\",\"Failed!\");\n        return false;\n    }\n  }\n\n    /*Shopper Functions*/\n  function BuyProduct(string memory _ProductName, uint _OrderQty)\n  public\n  payable\n  StopInEmergency isShopper\n  returns(bool)\n  {\n    require(Objects[_ProductName] == ObjectType.Product);\n\n    if(ProductList[ObjectIDs[_ProductName]].pdt_qty >= _OrderQty && msg.value >= ProductList[ObjectIDs[_ProductName]].pdt_price.mul(_OrderQty))\n    {\n        uint orderAmount = ProductList[ObjectIDs[_ProductName]].pdt_price.mul(_OrderQty);\n        uint amountToRefund = msg.value.sub(orderAmount);\n        uint storeOwnerbalance = StoreOwnerList[ObjectOwnerIDs[StoreFrontList[ObjectOwnerIDs[_ProductName]].sf_name]].so_balance;\n        StoreOwnerList[ObjectOwnerIDs[StoreFrontList[ObjectOwnerIDs[_ProductName]].sf_name]].so_balance = storeOwnerbalance.add(orderAmount);\n        uint productQty = ProductList[ObjectIDs[_ProductName]].pdt_qty;\n        ProductList[ObjectIDs[_ProductName]].pdt_qty = productQty.sub(_OrderQty);\n        msg.sender.transfer(amountToRefund);\n        emit TransactionRegistryUpdate(msg.sender, Actors[msg.sender], \"Buy Product\", \"Successful!\");\n        return true;\n    }\n    else\n    {\n        emit TransactionRegistryUpdate(msg.sender, Actors[msg.sender], \"Buy Product\", \"Failed!\");\n        return false;\n    }\n  }\n\n  function getAdministrators()\n  public\n  view\n  returns (address[] memory)\n  {\n    return (AdministratorList);\n  }\n\n  function getStoreOwners()\n  public\n  view\n  returns (StoreOwner[] memory)\n  {\n    return (StoreOwnerList);\n  }\n\n  function getStoreFronts()\n  public\n  view\n  returns (StoreFront[] memory)\n  {\n    return (StoreFrontList);\n  }\n\n  function getProducts()\n  public\n  view\n  returns (Product[] memory)\n  {\n    return (ProductList);\n  }\n\n  function getActorData(address _ActorAddress)\n  public\n  view\n  returns (ActorType, uint)\n  {\n    return (Actors[_ActorAddress], ActorIDs[_ActorAddress]);\n  }\n\n  function getObjectData(string memory _ObjectName)\n  public\n  view\n  returns (ObjectType, uint)\n  {\n    return (Objects[_ObjectName], ObjectIDs[_ObjectName]);\n  }\n\n  function getObjectOwnerData(string memory _ObjectOwnerName)\n  public\n  view\n  returns (ObjectOwnerType, uint)\n  {\n    return (ObjectOwners[_ObjectOwnerName], ObjectOwnerIDs[_ObjectOwnerName]);\n  }\n\n}\n",
  "sourcePath": "/home/prazbloke/Documents/ConsensysDP2018/final_project/contracts/MarketPlace.sol",
  "compiler": {
    "name": "solc",
    "version": "0.5.0+commit.1d4f565a.Emscripten.clang"
  },
  "schemaVersion": "3.0.0",
  "updatedAt": "2019-01-27T23:20:18.526Z",
  "devdoc": {
    "methods": {}
  },
  "userdoc": {
    "methods": {}
  }
}